:1000000010C02AC029C028C027C026C00DC124C0E6
:1000100023C022C021C020C01FC064C01DC01CC09E
:100020001BC011241FBECFE5D2E0DEBFCDBF10E064
:10003000A0E6B0E0E8ECF2E002C005900D92A23636
:10004000B107D9F710E0A2E6B0E001C01D92AF37CA
:10005000B107E1F744D036C1D3CFEAE3F0E08081C5
:1000600080618083808180628083ABE3B0E08C918B
:1000700080628C938081886080838C91877F8C9351
:100080008081806880838C918F778C93E1E2F0E0AF
:1000900080818160808317B880E183B98FEE86B953
:1000A00083E280BF81E083BF1CBE0895E8E5F0E0F5
:1000B000808182608083ECE2F0E0808182608083D6
:1000C0001BBC8CE78ABD1DBC1CBCEEE4F0E080814B
:1000D0008860808380818360808378940895BDDF09
:1000E000E5DFFFCF1F920F920FB60F9211242F93CF
:1000F0003F934F935F936F937F938F939F93AF93B0
:10010000BF93EF93FF93DF93CF930F92CDB7DEB7FB
:1001100085B1898381E090E022E630E0FC013197EF
:10012000D901A80FB91F4C91E20FF31F408301962C
:100130008431910599F789818093750080E090E082
:1001400020E030E062E670E0FB01E20FF31F408147
:10015000840F911D2F5F3F4F24313105A9F764E1D2
:1001600070E09CD060937900809179008CBF0F90F3
:10017000CF91DF91FF91EF91BF91AF919F918F91BF
:100180007F916F915F914F913F912F910F900FBE93
:100190000F901F901895DF93CF930F92CDB7DEB7D6
:1001A00080917700809376009091780089B3827077
:1001B00080958270EAE7F0E0E90FF11D808380917D
:1001C00078008F5F809378008FEF898380E090E0E4
:1001D0004AE750E0FA01E80FF91F30812981232313
:1001E0002983019684309105A9F78981809377004E
:1001F00080917800853010F0109278008091760020
:100200002091770030E090E08227932781FF08C09B
:100210008091770081FF04C099B388E089278BBB68
:100220000F90CF91DF9108951F920F920FB60F920A
:1002300011242F933F934F935F936F937F938F93EB
:100240009F93AF93BF93EF93FF9380916000909142
:1002500061009C0121503040309361002093600088
:10026000009751F499B380E189278BBB84EF91E02B
:1002700090936100809360008EDFFF91EF91BF91BA
:10028000AF919F918F917F916F915F914F913F912E
:100290002F910F900FBE0F901F901895AA1BBB1B9C
:1002A00051E107C0AA1FBB1FA617B70710F0A61B76
:1002B000B70B881F991F5A95A9F780959095BC0197
:0802C000CD010895F894FFCF71
:0202C800F4013F
:00000001FF
