:1000000010C02AC029C028C027C026C005C124C0EE
:1000100023C022C021C020C01FC064C01DC01CC09E
:100020001BC011241FBECFE5D2E0DEBFCDBF10E064
:10003000A0E6B0E0E6EBF2E002C005900D92A23639
:10004000B107D9F710E0A2E6B0E001C01D92A837D1
:10005000B107E1F744D02DC1D3CFEAE3F0E08081CE
:1000600080618083808180628083ABE3B0E08C918B
:1000700080628C938081886080838C91877F8C9351
:100080008081806880838C918F778C93E1E2F0E0AF
:1000900080818160808317B880E183B98FEE86B953
:1000A00083E280BF81E083BF1CBE0895E8E5F0E0F5
:1000B000808182608083ECE2F0E0808182608083D6
:1000C0001BBC8CE78ABD1DBC1CBCEEE4F0E080814B
:1000D0008860808380818360808378940895BDDF09
:1000E000E5DFFFCF1F920F920FB60F9211242F93CF
:1000F0003F934F935F936F937F938F939F93AF93B0
:10010000BF93EF93FF93DF93CF930F92CDB7DEB7FB
:1001100085B1898341E050E063E670E0CA01019750
:10012000FB01E40FF51F2081FB01E80FF91F20837D
:100130004F5F5F4F4431510589F789818093760085
:1001400020E030E040E050E063E670E0FB01E20FC9
:10015000F31F8081480F511D2F5F3F4F2431310520
:10016000A9F7CA0164E170E090D0609377008091B4
:1001700077008CBF0F90CF91DF91FF91EF91BF91EE
:10018000AF919F918F917F916F915F914F913F912F
:100190002F910F900FBE0F901F901895DF93CF9364
:1001A00000D000D000D0CDB7DEB789818A832091FE
:1001B000620089B382708095FE013496E20FF11DD2
:1001C00080832F5F209362008FEF8B839C818B81D4
:1001D00089238B838D819B8189238B838B81898369
:1001E000233010F0109262002A81898190E030E083
:1001F0008227932781FF07C0898181FF04C089B3CB
:1002000098E089278BBB26960FB6F894DEBF0FBE09
:10021000CDBFCF91DF9108951F920F920FB60F922D
:1002200011242F933F934F935F936F937F938F93FB
:100230009F93AF93BF93EF93FF9320916000309112
:100240006100C90101979093610080936000232BA6
:1002500051F489B390E189278BBB84EF91E09093AF
:100260006100809360009ADFFF91EF91BF91AF91A1
:100270009F918F917F916F915F914F913F912F91BE
:100280000F900FBE0F901F901895AA1BBB1B51E13A
:1002900007C0AA1FBB1FA617B70710F0A61BB70BF6
:1002A000881F991F5A95A9F780959095BC01CD019B
:0602B0000895F894FFCF51
:0202B600F40151
:00000001FF
