:1000000010C02AC029C028C027C026C00EC124C0E5
:1000100023C022C021C020C01FC06BC01DC01CC097
:100020001BC011241FBECFE5D2E0DEBFCDBF10E064
:10003000A0E6B0E0E6EBF4E002C005900D92A43635
:10004000B107D9F710E0A4E6B0E001C01D92AF38C7
:10005000B107E1F747D02DC2D3CFEAE3F0E08081CA
:1000600080618083808180628083ABE3B0E08C918B
:1000700080628C938081886080838C91877F8C9351
:100080008081806880838C918F778C9317BA87E00A
:1000900088BBE1E2F0E080818160808317B880E175
:1000A00083B98FEE86B983E280BF81E083BF1CBE37
:1000B0000895E8E5F0E0808182608083ECE2F0E082
:1000C0008081826080831BBC8CE78ABD1DBC1CBC08
:1000D000EEE4F0E0808188608083808183608083AB
:1000E00078940895BADFE5DF10927B0010927D00CE
:1000F000FFCF1F920F920FB60F9211242F933F93B1
:100100004F935F936F937F938F939F93AF93BF931F
:10011000EF93FF93DF93CF930F92CDB7DEB785B107
:10012000898381E090E025E630E0FC013197D90138
:10013000A80FB91F4C91E20FF31F40830196843141
:10014000910599F789818093780080E090E020E024
:1001500030E065E670E0FB01E20FF31F4081840FA1
:10016000911D2F5F3F4F24313105A9F764E170E005
:100170008CD160937F0080917F008CBF0F90CF91D6
:10018000DF91FF91EF91BF91AF919F918F917F91FF
:100190006F915F914F913F912F910F900FBE0F90F4
:1001A0001F901895DF93CF930F92CDB7DEB7809154
:1001B0007A008093790090917C0089B38270809559
:1001C0008270E9E8F0E0E90FF11D808380917C0006
:1001D0008F5F80937C008FEF898380E090E049E817
:1001E00050E0FA01E80FF91F308129812323298388
:1001F000019684309105A9F7898180937A008091D6
:100200007C00853010F010927C0080917900209164
:100210007A0030E090E08227932781FF02C080912E
:100220007A000F90CF91DF9108951F920F920FB631
:100230000F9211242F933F934F935F936F937F936C
:100240008F939F93AF93BF93EF93FF9386B3877082
:1002500080938E0080916200909163009C012150F8
:1002600030403093630020936200009751F499B3BB
:1002700080E189278BBB84EF91E0909363008093AA
:10028000620080917D00882361F5EBE3F0E09081CE
:10029000906290839081977F90832091600030914D
:1002A0006100A901415050405093610040936000AB
:1002B00021153105B1F48CE291E0909361008093B7
:1002C000600081E080937D0080818F7D80838081CC
:1002D000886080838BE291E090936100809360005E
:1002E00031C0813079F5EBE3F0E080818F7D808350
:1002F00080818860808380916000909161009C0182
:100300002150304030936100209360000097D1F479
:1003100088EE93E0909361008093600082E0809388
:100320007D0080918E008093640080818062808354
:100330008081877F808387EE93E090936100809334
:10034000600028C080917D00823021F5EBE3F0E071
:100350008081806280838081877F8083809160003C
:10036000909161009C0121503040309361002093B6
:100370006000009779F484E690E0909361008093A8
:10038000600083E080937D0080918E008093640004
:1003900083E007C080917D00982F9350923008F041
:1003A00062C090916400992309F455C0833061F5CF
:1003B000EBE3F0E080818F7D8083808188608083A3
:1003C0002091600030916100A9014150504050934C
:1003D00061004093600021153105B1F484EF91E094
:1003E000909361008093600084E080937D00808121
:1003F000806280838081877F808383EF91E0909308
:100400006100809360002FC080917D00843059F599
:10041000EBE3F0E08081806280838081877F80834E
:100420002091600030916100A901415050405093EB
:1004300061004093600021153105A9F424E630E005
:10044000309361002093600083E080937D009150A1
:100450009093640008C088EE93E0909361008093CD
:10046000600010927D009EDEFF91EF91BF91AF91F1
:100470009F918F917F916F915F914F913F912F91BC
:100480000F900FBE0F901F901895AA1BBB1B51E138
:1004900007C0AA1FBB1FA617B70710F0A61BB70BF4
:1004A000881F991F5A95A9F780959095BC01CD0199
:0604B0000895F894FFCF4F
:0404B600E803F40162
:00000001FF
