:100000002DC047C046C045C044C043C053C341C0D3
:1000100040C03FC03EC03DC03CC087C03AC039C0B0
:1000200038C0426C6F7765722052616D70696E677F
:1000300020415474696E7938342056312E3020288E
:100040006329204D52552032302E31302E3230313E
:10005000302031373A3231205568720011241FBEEA
:10006000CFE5D2E0DEBFCDBF11E0A0E6B0E0EEEC20
:10007000FEE102C005900D92A436B107D9F711E058
:10008000A4E6B1E001C01D92AF39B107E1F760D637
:100090001CCFB6CFEAE3F0E080818061808380816D
:1000A00080628083ABE3B0E08C9180628C9380812E
:1000B000886080838C91877F8C938081846080832B
:1000C0008C9184608C938081806880838C918F7701
:1000D0008C9317BA87E088BBE1E2F0E08081816011
:1000E000808317B880E183B98FEE86B983E280BF41
:1000F00081E083BF1CBE0895E8E5F0E08081826066
:100100008083ECE2F0E08081826080831BBC8CE71E
:100110008ABD1DBC1CBCEEE4F0E080818860808359
:10012000808183608083789408951F920F920FB628
:100130000F9211242F933F934F935F936F937F936D
:100140008F939F93AF93BF93EF93FF93DF93CF93DF
:100150000F92CDB7DEB785B1898381E090E025E6C7
:1001600031E0FC013197D901A80FB91F4C91E20F82
:10017000F31F408301968431910599F7898180931B
:10018000780180E090E020E030E065E671E0FB017E
:10019000E20FF31F4081840F911D2F5F3F4F2431E9
:1001A0003105A9F764E170E00ADE609387010F90E2
:1001B000CF91DF91FF91EF91BF91AF919F918F917F
:1001C0007F916F915F914F913F912F910F900FBE53
:1001D0000F901F901895AF92BF92CF92DF92EF923F
:1001E000FF920F931F93DF93CF930F92CDB7DEB79C
:1001F00080917A018093790190917C0189B382701A
:1002000080958270E1E9F1E0E90FF11D8083809132
:100210007C018F5F80937C018FEF898380E090E089
:1002200041E951E0FA01E80FF91F308129812323C8
:100230002983019684309105A9F7898180937A01F9
:1002400080917C01853010F010927C0180917901C1
:1002500020917A0130E090E08227932781FF1EC22F
:1002600080917A0181FF0DC180917B01882309F083
:1002700082C080918701809386018CB7809388012A
:10028000A0908601BB24CC24DD24EE24FF2487012A
:100290002A2D3B2D4C2D5D2D6E2D7F2D802F912FE6
:1002A000AA246894A4F80F2EF7E2BF2EF02DCC24D8
:1002B000DD24EE24FF2400E010E0FBD5209396011E
:1002C00030939701409398015093990160939A015C
:1002D00070939B0180939C0190939D01A090880155
:1002E000BB24CC24DD24EE24FF2487012A2D3B2DC2
:1002F0004C2D5D2D6E2D7F2D802F912FAA2468947B
:10030000A4F80F2EF7E2BF2EF02DCC24DD24EE242E
:10031000FF2400E010E0CDD52093890130938A01BD
:1003200040938B0150938C0160938D0170938E01EB
:1003300080938F0190939001209186018091880194
:1003400030E0281B3109C901990F880B982F2093A1
:100350007D0130937E0180937F01809380018093A3
:10036000810180938201809383018093840181E0E5
:1003700080937B0186C080917B01833009F081C02E
:1003800080918701809386018CB780938801A0902B
:100390008601BB24CC24DD24EE24FF2487012A2DF2
:1003A0003B2D4C2D5D2D6E2D7F2D802F912FAA245E
:1003B0006894A4F80F2EF7E2BF2EF02DCC24DD2494
:1003C000EE24FF2400E010E074D5209396013093D2
:1003D0009701409398015093990160939A0170930B
:1003E0009B0180939C0190939D01A0908801BB2468
:1003F000CC24DD24EE24FF2487012A2D3B2D4C2D17
:100400005D2D6E2D7F2D802F912FAA246894A4F846
:100410000F2EF7E2BF2EF02DCC24DD24EE24FF2496
:1004200000E010E046D52093890130938A01409383
:100430008B0150938C0160938D0170938E0180939A
:100440008F0190939001209186018091880130E086
:10045000281B3109C901990F880B982F20937D0122
:1004600030937E0180937F0180938001809381018E
:1004700080938201809383018093840181E0809343
:100480007B0180917A0181FD09C180917B018130DE
:1004900009F080C0109286018CB780938801A090EB
:1004A0008601BB24CC24DD24EE24FF2487012A2DE1
:1004B0003B2D4C2D5D2D6E2D7F2D802F912FAA244D
:1004C0006894A4F80F2EF7E2BF2EF02DCC24DD2483
:1004D000EE24FF2400E010E0ECD42093960130934A
:1004E0009701409398015093990160939A017093FA
:1004F0009B0180939C0190939D01A0908801BB2457
:10050000CC24DD24EE24FF2487012A2D3B2D4C2D05
:100510005D2D6E2D7F2D802F912FAA246894A4F835
:100520000F2EF7E2BF2EF02DCC24DD24EE24FF2485
:1005300000E010E0BED42093890130938A014093FB
:100540008B0150938C0160938D0170938E01809389
:100550008F0190939001209188018091860130E075
:10056000281B3109C901990F880B982F20937D0111
:1005700030937E0180937F0180938001809381017D
:1005800080938201809383018093840183E0809330
:100590007B0184C080917B01823009F07FC0109282
:1005A00086018CB780938801A0908601BB24CC245F
:1005B000DD24EE24FF2487012A2D3B2D4C2D5D2DBB
:1005C0006E2D7F2D802F912FAA246894A4F80F2ED2
:1005D000F7E2BF2EF02DCC24DD24EE24FF2400E032
:1005E00010E067D4209396013093970140939801CF
:1005F0005093990160939A0170939B0180939C01A1
:1006000090939D01A0908801BB24CC24DD24EE248E
:10061000FF2487012A2D3B2D4C2D5D2D6E2D7F2D26
:10062000802F912FAA246894A4F80F2EF7E2BF2EF2
:10063000F02DCC24DD24EE24FF2400E010E039D49A
:100640002093890130938A0140938B0150938C0150
:1006500060938D0170938E0180938F019093900130
:10066000209188018091860130E0281B3109C90161
:10067000990F880B982F20937D0130937E018093F2
:100680007F01809380018093810180938201809318
:1006900083018093840183E080937B010F90CF914D
:1006A000DF911F910F91FF90EF90DF90CF90BF905F
:1006B000AF9008951F920F920FB60F921124AF9230
:1006C000BF92CF92DF92EF92FF920F931F932F93DF
:1006D0003F934F935F936F937F938F939F93AF93CA
:1006E000BF93EF93FF9380917B01813009F006C1A6
:1006F0009CB780918701981721F482E080937B0159
:10070000FDC0E091890140918A0130918B012091D7
:100710008C0190918D0180918E01B0908F01D090CD
:10072000900160917D01E0907E0100917F01109128
:100730008001B0918101A0918201F0918301C0906C
:100740008401E60F51E0E61708F050E04E0D61E03D
:100750004E1508F060E0F52EF40E51E0F41608F0A6
:1007600050E0652B4F2D300F71E0301708F070E02E
:10077000630F51E0631708F050E0752B362F210FFF
:1007800061E0211708F060E0720F51E0721708F085
:1007900050E0652B272F9B0F71E09B1708F070E04E
:1007A000690F51E0691708F050E0752B962F8A0FFA
:1007B00061E08A1708F060E0780FA1E0781708F090
:1007C000A0E06A2B872F7F2F7B0D51E07F1708F069
:1007D00050E0670FF1E0671708F0F0E05F2BDC0CEA
:1007E0005D0DE093890140938A0130938B01209342
:1007F0008C0190938D0180938E0160938F015093B3
:100800009001E090890170918A01F0918B01B09183
:100810008C0100918D0150918E0130918F0190914A
:100820009001F090960160919701E0919801A0915C
:10083000990110919A0140919B0120919C01809116
:100840009D018917E0F09817D1F52317C0F03217F2
:10085000B1F54517A0F0541791F5101780F0011766
:1008600071F5AB1760F0BA1751F5EF1740F0FE17AE
:1008700031F5671720F0761711F5FE1400F5709129
:1008800096016091970150919801409199013091A2
:100890009A0120919B0190919C0180919D01709300
:1008A000890160938A0150938B0140938C013093AE
:1008B0008D0120938E0190938F0180939001209160
:1008C000890130918A0140918B0150918C01609196
:1008D0008D0170918E0180918F0190919001AA24D9
:1008E0006894A4F80F2EF7E2BF2EF02DCC24DD245F
:1008F000EE24FF2400E010E0D4D32CBF80917B01D4
:10090000833009F019C18CB7882319F410927B0148
:1009100013C160918901E0908A0100918B011091CF
:100920008C01B0918D01A0918E01F0918F01C0904A
:100930009001E0917D0140917E0130917F012091F5
:1009400080019091810180918201B0908301D090CB
:100950008401562F5E1BE52F51E06E1708F050E022
:100960006E2D641B462F61E0E41608F060E0F42E63
:10097000F51A51E04F1508F050E0652B4F2D502F20
:10098000531B352F71E0051708F070E0532F561BED
:10099000652F51E0361708F050E0752B362F612F88
:1009A000621B262F61E0121708F060E0522F571BE0
:1009B000752F51E0271708F050E0652B272F5B2F8C
:1009C000591B952F71E0B51708F070E0592F561B91
:1009D000652F51E0961708F050E0752B962F6A2F7F
:1009E000681B862F61E0A81708F060E0582F571B9E
:1009F000752FA1E0851708F0A0E06A2B872F7F2FC5
:100A00007B1951E0F71708F050E0F72FF61B6F2F16
:100A1000F1E0761708F0F0E05F2BCD18C51AE093EF
:100A2000890140938A0130938B0120938C0190932C
:100A30008D0180938E0160938F01C0929001F090A0
:100A4000890160918A01E0918B01A0918C01109144
:100A50008D0140918E0120918F0180919001E09055
:100A6000960170919701F0919801B09199010091D0
:100A70009A0150919B0130919C0190919D018917A1
:100A8000E0F09817D1F52317C0F03217B1F54517EC
:100A9000A0F0541791F5101780F0011771F5AB17FE
:100AA00060F0BA1751F5EF1740F0FE1731F56717F0
:100AB00020F0761711F5FE1400F570919601609103
:100AC0009701509198014091990130919A0120919C
:100AD0009B0190919C0180919D017093890160938D
:100AE0008A0150938B0140938C0130938D012093A8
:100AF0008E0190938F018093900120918901309114
:100B00008A0140918B0150918C0160918D0170910F
:100B10008E0180918F0190919001AA246894A4F88D
:100B20000F2EF7E2BF2EF02DCC24DD24EE24FF247F
:100B300000E010E0B6D22CBF80917B01823019F426
:100B4000809187018CBF86B3877080939E018091CE
:100B50006200909163009C0121503040309363000B
:100B600020936200009761F4EBE3F0E0908180E174
:100B70008927808384EF91E09093630080936200E3
:100B8000809185018823F1F4EBE3F0E080818062BD
:100B900080838081877F8083809160009091610055
:100BA0009C012150304030936100209360000097F9
:100BB00049F48CE291E0909361008093600081E0C1
:100BC0008093850180918501813011F5EBE3F0E0A0
:100BD00080818F7D808380818860808380916000A8
:100BE000909161009C01215030403093610020932E
:100BF0006000009769F488EE93E090936100809321
:100C0000600082E08093850180919E018093640161
:100C100080918501823011F5EBE3F0E08081806204
:100C200080838081877F80838091600090916100C4
:100C30009C01215030403093610020936000009768
:100C400069F484E690E0909361008093600083E013
:100C50008093850180919E0180936401809185013C
:100C6000833029F080918501843009F057C080914C
:100C70006401882309F44AC0909185019330F9F406
:100C8000EBE3F0E090819F7D90839081986090836A
:100C90002091600030916100A90141505040509373
:100CA0006100409360002115310549F424EF31E0E3
:100CB000309361002093600094E0909385019091BF
:100CC0008501943059F5EBE3F0E0908190629083D8
:100CD0009081977F90832091600030916100A901FD
:100CE0004150504050936100409360002115310500
:100CF000A9F424E630E0309361002093600093E093
:100D00009093850181508093640108C088EE93E040
:100D10009093610080936000109285015CDAFF91EE
:100D2000EF91BF91AF919F918F917F916F915F9163
:100D30004F913F912F911F910F91FF90EF90DF9076
:100D4000CF90BF90AF900F900FBE0F901F9018954F
:100D5000AF92BF92CF92DF92EF92FF920F931F93C9
:100D600099D9CAD910927B01109285011CBE8FE4DB
:100D700093EC0197F1F700C0000010928801809178
:100D8000870180938601A0908601BB24CC24DD24BA
:100D9000EE24FF2487012A2D3B2D4C2D5D2D6E2D39
:100DA0007F2D802F912FAA246894A4F80F2EF7E2AC
:100DB000BF2EF02DCC24DD24EE24FF2400E010E033
:100DC00078D02093960130939701409398015093E7
:100DD000990160939A0170939B0180939C01909379
:100DE0009D01A0908801BB24CC24DD24EE24FF24A7
:100DF00087012A2D3B2D4C2D5D2D6E2D7F2D802FB3
:100E0000912FAA246894A4F80F2EF7E2BF2EF02D9C
:100E1000CC24DD24EE24FF2400E010E04AD020930F
:100E2000890130938A0140938B0150938C01609328
:100E30008D0170938E0180938F019093900120918A
:100E400086018091880130E0281B3109C901990F82
:100E5000880B982F20937D0130937E0180937F0132
:100E6000809380018093810180938201809383012C
:100E700080938401EBE3F0E080917B01882319F4F7
:100E800080818460808380917B01813019F480812E
:100E90008B7F808380917B01823019F480818B7FEE
:100EA000808380917B01833039F780818B7F8083C1
:100EB000E3CFA0E3B0E0EEE5F7E0D0C7E8E04E0115
:100EC0000894811C911CD401FE2F1D92FA95E9F71C
:100ED00029833A834B835C836D837E838F839887DA
:100EE000CE010996DC011D92EA95E9F7A986BA863A
:100EF000CB86DC86ED86FE860F87188BE980FA802C
:100F00000B811C81BFEF6B2EBFEF7B2E812C912CB0
:100F10006E207F20802291221801442455242DA682
:100F20003EA64FA658AAA984BA84CB84DC84FFEFDE
:100F30002F2EFFEF3F2E412C512C2A203B204C20FE
:100F40005D2096014427552729A73AA74BA75CA700
:100F5000C201B101A401930146D76DA37EA38FA363
:100F600098A769A57AA58BA59CA5A40193013BD759
:100F700069A37AA38BA39CA3C201B1012DA53EA5B1
:100F80004FA558A930D73B014C0169A57AA58BA57F
:100F90009CA52DA53EA54FA558A925D7472F382F8D
:100FA000292F862F942FA32FB22F9C01AD0189A149
:100FB0009AA1ABA1BCA1860D971DA81DB91D2DA09E
:100FC0003EA04FA058A412014424552429A23AA2BD
:100FD0004BA25CA2820D931DA41DB51D861597051D
:100FE000A805B90520F4205030404F4F5F4F2D0128
:100FF00066247724420E531E641E751E4D8E5E8E2F
:101000006F8E78A24C01772466248DA19EA1AFA19A
:10101000B8A5A070B070680E791E8A1E9B1E698EDE
:101020007A8E8B8E9C8E2A8C9B8C8C8C2E8D9F8D99
:1010300088A1FE01719638E0DF011D923A95E9F72B
:101040004D8A2E8B9F8B888FC801B7012D853E85D9
:101050004F855889C8D67B018C01C601B5012D8109
:101060003E814F815885BFD69B01AC012E0D3F1D9F
:10107000401F511F8D899E89AF89B88D820F931FA4
:10108000A41FB51F8D8B9E8BAF8BB88F682F7E8969
:10109000262D322D492D582D8F89988DE096E2E12D
:1010A000F9C6A8E3B0E0E6E5F8E0D8C6E8E04E010E
:1010B0000894811C911CD401FE2F1D92FA95E9F72A
:1010C00029833A834B835C836D837E838F839887E8
:1010D000CE010996DC011D92EA95E9F7A986BA8648
:1010E000CB86DC86ED86FE860F87188BE984FA8432
:1010F0000B851C854D845E846F84788889809A80F6
:10110000AB80BC8089A29AA2ABA2BCA2AD80BE80FB
:10111000CF80D884411451046104710409F0DCC308
:10112000AE14BF04C006D10608F033C120E0E216B9
:1011300020E0F20621E0020720E0120780F43FEFF2
:10114000E316F1040105110531F028F088E090E084
:10115000A0E0B0E016C080E090E0DC0112C040E00A
:10116000E41640E0F40640E0040741E0140728F0EC
:1011700088E190E0A0E0B0E004C080E190E0A0E071
:10118000B0E0A8019701082E04C056954795379501
:1011900027950A94D2F7F901EC59FF4F308140E2CC
:1011A00050E060E070E02A013B01481A590A6A0ADF
:1011B0007B0A43013201631A710881089108A40176
:1011C00093016114710481049104B9F1962D04C056
:1011D000EE0CFF1C001F111F6A94D2F74501560147
:1011E000022E04C0880C991CAA1CBB1C0A94D2F7BE
:1011F00060E270E06B01C21AD30A49A05AA06BA04A
:101200007CA004C07694679457944794CA94D2F70C
:1012100065015401A428B528C628D72869A07AA05A
:101220008BA09CA004C0660C771C881C991C9A9506
:10123000D2F769A27AA28BA29CA2380188249924B1
:10124000A8019701407050702D8F3E8F4F8F58A38B
:10125000C601B501A4019301DFD51B012C01C60114
:10126000B501A4019301D8D5A22EB32EC42ED52E3C
:10127000C601B5012D8D3E8D4F8D58A1B4D5AB0162
:10128000BC0121013324222489A19AA1ABA1BCA1D4
:10129000CD01AA27BB27282A392A4A2A5B2A2416E5
:1012A000350646065706E0F40894A108B108C108BF
:1012B000D1082E0C3F1C401E511E2E143F04400628
:1012C000510670F0241635064606570648F4089471
:1012D000A108B108C108D1082E0C3F1C401E511EA8
:1012E000241A350A460A570AC201B101A401930122
:1012F00093D5698F7A8F8B8F9C8FC201B101A40126
:1013000093018AD5622E732E842E952EC401B301CB
:101310002D8D3E8D4F8D58A166D5AB01BC01898DB9
:101320009A8DAB8DBC8D2C013324222489A19AA1E6
:10133000ABA1BCA1A070B07082299329A429B529C2
:1013400084179507A607B707C0F4089461087108C9
:10135000810891088E0D9F1DA01FB11F8E159F053E
:10136000A007B10750F084179507A607B70728F420
:10137000089461087108810891086501BB24AA24BA
:1013800084017301EA28FB280C291D294701580113
:10139000F9C4E114F1040105110569F461E070E09C
:1013A00080E090E020E030E0A90136D5E22EF32E77
:1013B000042F152F15C020E0E21620E0F20621E0F0
:1013C000020720E0120780F43FEFE316F104010565
:1013D000110531F028F088E090E0A0E0B0E016C000
:1013E00080E090E0DC0112C040E0E41640E0F4064A
:1013F00040E0040741E0140728F088E190E0A0E015
:10140000B0E004C080E190E0A0E0B0E0A801970166
:10141000082E04C056954795379527950A94D2F71C
:10142000F901EC59FF4F2081820F911DA11DB11DC3
:1014300020E2222E312C412C512C281A390A4A0A3A
:101440005B0A81F4D601C5018E199F09A00BB10B6F
:101450008D8F9E8FAF8FB8A3A1E04A2E512C612CA7
:10146000712C3CC1022C04C0EE0CFF1C001F111F8C
:101470000A94D2F735014601082E04C09694879449
:10148000779467940A94D2F7022C04C0AA0CBB1C70
:10149000CC1CDD1C0A94D2F729A13AA14BA15CA176
:1014A00004C056954795379527958A95D2F7DA0166
:1014B000C901A6019501282B392B4A2B5B2B2DA3A3
:1014C0003EA34FA358A7C801AA27BB2789AB9AAB55
:1014D000ABABBCABA80197014070507029A73AA7ED
:1014E0004BA75CA7C401B30129A93AA94BA95CA9E0
:1014F00093D4698F7A8F8B8F9C8FC401B30129A9F4
:101500003AA94BA95CA988D4822E932EA42EB52E7D
:10151000C501B40129A53AA54BA55CA564D46DA766
:101520007EA78FA798AB898D9A8DAB8DBC8DDC0182
:1015300099278827898F9A8FAB8FBC8F4DA05EA08B
:101540006FA078A4230166247724D301C201298DDA
:101550003A8D4B8D5C8D822B932BA42BB52B4DA4F8
:101560005EA46FA478A884159505A605B705E0F4D8
:10157000089481089108A108B1088E0D9F1DA01F35
:10158000B11F8E159F05A007B10770F08415950552
:10159000A605B70548F4089481089108A108B10888
:1015A0008E0D9F1DA01FB11F9C01AD014DA45EA417
:1015B0006FA478A824193509460957092D8F3E8F45
:1015C0004F8F58A3CA01B90129A93AA94BA95CA90F
:1015D00023D4698F7A8F8B8F9C8F6D8D7E8D8F8DAD
:1015E00098A129A93AA94BA95CA916D4422E532E39
:1015F000642E752EC301B20129A53AA54BA55CA5A1
:10160000F2D369A77AA78BA79CA7298D3A8D4B8D1A
:101610005C8DA901332722278DA19EA1AFA1B8A57A
:10162000A070B070822B932BA42BB52B898F9A8F2F
:10163000AB8FBC8F29A53AA54BA55CA58217930754
:10164000A407B50720F508944108510861087108FE
:101650008E0D9F1DA01FB11F898F9A8FAB8FBC8FDE
:101660008E159F05A007B10790F082179307A40776
:10167000B50768F4089441085108610871088E0D97
:101680009F1DA01FB11F898F9A8FAB8FBC8F89A11F
:101690009AA1ABA1BCA1022C04C0880F991FAA1F5C
:1016A000BB1F0A94D2F789A39AA3ABA3BCA3298D2D
:1016B0003A8D4B8D5C8D89A59AA5ABA5BCA5281B41
:1016C000390B4A0B5B0B2D8F3E8F4F8F58A3540164
:1016D00099248824482859286A287B284801AA2464
:1016E000BB248DA29EA2AFA2B8A6A801970140700C
:1016F000507029A73AA74BA75CA76D8D7E8D8F8D63
:1017000098A1A501940188D3698F7A8F8B8F9C8FC4
:101710006D8D7E8D8F8D98A1A50194017DD3822E34
:10172000932EA42EB52E89AA9AAAABAABCAAC5014B
:10173000B40129A53AA54BA55CA555D39B016DA77E
:101740003EA78FA798AB898D9A8DAB8DBC8DDC01A0
:1017500099278827898F9A8FAB8FBC8FA9A0BAA0B1
:10176000CBA0DCA04601AA24BB24D501C401298D4D
:101770003A8D4B8D5C8D822B932BA42BB52B8DA496
:101780009EA4AFA4B8A888159905AA05BB0530F595
:1017900029A93AA94BA95CA92150304040405040AA
:1017A00029AB3AAB4BAB5CAB8E0D9F1DA01FB11F9D
:1017B0008E159F05A007B10788F088159905AA0521
:1017C000BB0560F4215030404040504029AB3AAB5B
:1017D0004BAB5CAB8E0D9F1DA01FB11F4C015D017B
:1017E0002DA53EA54FA558A9821A930AA40AB50AA9
:1017F000898E9A8EAB8EBC8EC501B4012DA13EA1FF
:101800004FA158A509D35B016C01698D7A8D8B8D31
:101810009C8D2DA13EA14FA158A5FED2298F3A8FB4
:101820004B8F5C8FCA01B90129A53AA54BA55CA5D0
:10183000DAD2AB01BC01D501992788278D8F9E8F05
:10184000AF8FB8A389A19AA1ABA1BCA1A070B070C1
:101850008D8C9E8CAF8CB8A0882A992AAA2ABB2A84
:1018600084169506A606B70638F5898D9A8DAB8D38
:10187000BC8D0197A109B109898F9A8FAB8FBC8F5D
:10188000D501C4018E0D9F1DA01FB11F8E159F0590
:10189000A007B10788F084179507A607B70760F47B
:1018A000098D1A8D2B8D3C8D015010402040304009
:1018B000098F1A8F2B8F3C8F29A93AA94BA95CA9B4
:1018C000590199248824898D9A8DAB8DBC8D882AE5
:1018D000992AAA2ABB2A59C2A414B504C604D7045B
:1018E00008F449C290E0491690E0590691E0690673
:1018F00090E0790680F4AFEF4A1651046104710458
:1019000031F028F088E090E0A0E0B0E016C080E080
:1019100090E0DC0112C0B0E04B16B0E05B06B0E036
:101920006B06B1E07B0628F088E190E0A0E0B0E033
:1019300004C080E190E0A0E0B0E0A3019201082E95
:1019400004C056954795379527950A94D2F7F90123
:10195000EC59FF4F2081820F911DA11DB11D20E286
:1019600030E040E050E0281B390B4A0B5B0B89F458
:101970004A145B046C047D0408F4F4C149A05AA025
:101980006BA07CA04E145F046006710608F0EAC1EB
:10199000F2C1222E04C0440C551C661C771C2A95EB
:1019A000D2F7A8019701082E04C0569547953795A0
:1019B00027950A94D2F7422A532A642A752AA80145
:1019C0009701022C04C0220F331F441F551F0A9495
:1019D000D2F729A73AA74BA75CA786017501082E65
:1019E00004C016950795F794E7940A94D2F7022C51
:1019F00004C0AA0CBB1CCC1CDD1C0A94D2F729A184
:101A00003AA14BA15CA104C05695479537952795FF
:101A10008A95D2F7DA01C901A6019501282B392B45
:101A20004A2B5B2B2D8F3E8F4F8F58A3C301AA27C4
:101A3000BB278DAB9EABAFABB8AFA301920140709B
:101A400050702DA73EA74FA758ABC801B7012DA9CD
:101A50003EA94FA958ADE0D1698F7A8F8B8F9C8FAB
:101A6000C801B7012DA93EA94FA958ADD5D1E22E85
:101A7000F32E042F152FC801B7012DA53EA54FA5A4
:101A800058A9B1D19B0169AB3AAB8BAB9CAB898DAB
:101A90009A8DAB8DBC8DDC0199278827898F9A8F11
:101AA000AB8FBC8FAD8CBE8CCF8CD8A04601AA2446
:101AB000BB24D501C401298D3A8D4B8D5C8D822BC1
:101AC000932BA42BB52B89A89AA8ABA8BCA88815E2
:101AD0009905AA05BB05E0F40894E108F10801099D
:101AE0001109840D951DA61DB71D84159505A60524
:101AF000B70570F088159905AA05BB0548F4089448
:101B0000E108F10801091109840D951DA61DB71DF5
:101B10005C016D0129A93AA94BA95CA9A21AB30AD3
:101B2000C40AD50AADA2BEA2CFA2D8A6C601B501ED
:101B30002DA93EA94FA958AD6FD1698F7A8F8B8F90
:101B40009C8FC601B5012DA93EA94FA958AD64D1FE
:101B5000822E932EA42EB52EC501B4012DA53EA52F
:101B60004FA558A940D19B016DA33EA38FA398A771
:101B7000898D9A8DAB8DBC8DDC0199278827898F43
:101B80009A8FAB8FBC8F2D8D3E8D4F8D58A140709D
:101B90005070822B932BA42BB52B2DA13EA14FA1CE
:101BA00058A582179307A407B507E0F408948108A5
:101BB0009108A108B108840D951DA61DB71D8415B7
:101BC0009505A605B70570F082179307A407B5071A
:101BD00048F4089481089108A108B108840D951D66
:101BE000A61DB71D2C013D012DA13EA14FA158A559
:101BF000421A530A640A750A4DA25EA26FA278A621
:101C00008701FF24EE248E289F28A02AB12AAFEF57
:101C1000EA2EAFEFFA2E012D112DE820F9200A212E
:101C20001B21C501AA27BB278DA79EA7AFA7B8ABCD
:101C300049A45AA46BA47CA42FEF3FEF40E050E0EE
:101C4000422253226422752289A59AA5ABA5BCA580
:101C5000CD01AA27BB2789A79AA7ABA7BCA7C80114
:101C6000B701A3019201BFD0698F7A8F8B8F9C8FB0
:101C7000C801B70129A53AA54BA55CA5B4D06D8FC5
:101C80007E8F8F8F98A36DA57EA58FA598A9A301A0
:101C90009201A9D07B018C016DA57EA58FA598A985
:101CA00029A53AA54BA55CA59ED0472F382F292FF3
:101CB000862F942FA32FB22F4D8C5E8C6F8C78A023
:101CC0004E0C5F1C601E711E298D3A8D4B8D5C8DF4
:101CD0009A0144275527240D351D461D571D2E15E5
:101CE0003F054007510720F480509040AF4FBF4F51
:101CF0007A01002711278E0D9F1DA01FB11F4DA037
:101D00005EA06FA078A4481659066A067B0620F1EB
:101D100084159505A605B705A9F5A901332722273E
:101D2000898D9A8DAB8DBC8DA070B070280F391F36
:101D30004A1F5B1FC9A0DAA0EBA0FCA004C0CC0C1A
:101D4000DD1CEE1CFF1C2A94D2F716012701C216D7
:101D5000D306E406F506B0F4089481089108A108BA
:101D6000B10810C044245524320181E0882E912C02
:101D7000A12CB12C0AC04424552432018824992472
:101D8000540103C0442455243201FE01719688E0B9
:101D9000DF011D928A95E9F7898A9A8AAB8ABC8A03
:101DA0004D8A5E8A6F8A788E282D3A894B895C89A4
:101DB000642D7E898F89988DE896E2E16BC0AA1B1D
:101DC000BB1B51E107C0AA1FBB1FA617B70710F026
:101DD000A61BB70B881F991F5A95A9F78095909558
:101DE000BC01CD010895FF27EE27BB27AA2760FF7E
:101DF00004C0A20FB31FE41FF51F220F331F441F9F
:101E0000551F969587957795679589F7009776077B
:101E100071F7CF01BD010895A1E21A2EAA1BBB1BC9
:101E2000FD010DC0AA1FBB1FEE1FFF1FA217B307A6
:101E3000E407F50720F0A21BB30BE40BF50B661FBC
:101E4000771F881F991F1A9469F760957095809580
:101E500090959B01AC01BD01CF0108952F923F9257
:101E60004F925F926F927F928F929F92AF92BF92AA
:101E7000CF92DF92EF92FF920F931F93CF93DF9356
:101E8000CDB7DEB7CA1BDB0B0FB6F894DEBF0FBEB3
:101E9000CDBF09942A88398848885F846E847D8400
:101EA0008C849B84AA84B984C884DF80EE80FD8002
:101EB0000C811B81AA81B981CE0FD11D0FB6F89478
:0E1EC000DEBF0FBECDBFED010895F894FFCF39
:101ECE00E803F40100010202030303030404040403
:101EDE0004040404050505050505050505050505A8
:101EEE000505050506060606060606060606060688
:101EFE000606060606060606060606060606060674
:101F0E000606060607070707070707070707070757
:101F1E000707070707070707070707070707070743
:101F2E000707070707070707070707070707070733
:101F3E000707070707070707070707070707070723
:101F4E000707070708080808080808080808080807
:101F5E0008080808080808080808080808080808F3
:101F6E0008080808080808080808080808080808E3
:101F7E0008080808080808080808080808080808D3
:101F8E0008080808080808080808080808080808C3
:101F9E0008080808080808080808080808080808B3
:101FAE0008080808080808080808080808080808A3
:101FBE000808080808080808080808080808080893
:041FCE0008080808EF
:00000001FF
